S01C0000415050535F454E444445564943455F44454D4F312E7372656339
S21400000078500020555C0000515C0000515C0000F8
S21400001000000000000000000000000000000000DB
S214000020000000000000000000000000515C00001E
S2140000300000000000000000515C0000515C000061
S214000040515C0000515C00000D360000A52D00003C
S214000050515C0000515C0000515C0000515C0000E7
S214000060C5430000D5430000E5430000F54300000B
S2140000700544000015440000515C0000515C00007F
S214000080515C00000D5800001D5800002D5800005F
S2140000903D5800004D580000F12A0000515C000059
S2140000A0515C0000515C0000515C0000515C000097
S2140000B00000000010B5064C2378002B07D1054B36
S2140000C0002B02D0044800E000BF0123237010BDBF
S2140000D0C809002000000000A0F00100084B10B581
S2140000E0002B03D00749084800E000BF0748036814
S2140000F0002B00D110BD064B002BFBD09847F9E72C
S21400010000000000CC090020A0F00100A0F00100D3
S2140001100000000010B5054B9847431C05D0C0B240
S214000120034B98471020034B984710BDD96000003A
S2140001305124000011DC000010B586B0084B98472B
S214000140084B984702AB01221A710022009206491A
S214000150039A064B0C20064CA04706B010BDC046BE
S214000160C923000091070000C411002000000020F1
S21400017031CB0000F0B5DE4657464E464546E0B564
S2140001808BB0874B1B789846864B1B680193864C32
S214000190864D01E0C0B2A847A047431CFAD1844B65
S2140001A0844AD35C002B4FD0834BD35C0133DBB245
S2140001B09A46002B46D000239B4691467F4F4646E4
S2140001C0D846D3461AE05646A64200D8E1E0009B41
S2140001D05B680393002B3ED02401019B9C4664443D
S2140001E043460133DBB298465B46013BDBB29B4697
S2140001F0267B636801935B46002B23D0704B0993E4
S214000200002E00D1C3E0019D0024434602931D3317
S214000210FF335B004B440233B2461E000095318824
S21400022049442868B8470028CDD00134E4B21035D8
S2140002305445F3D1624C2000624B984781B22000AF
S214000240614B9847614B98470BB03CBC904699462B
S214000250A246AB46F0BDC346009B9C68002C00D16E
S21400026099E05A7B544B5349CB5C02995B1A9342F4
S21400027001D0534CDFE7002A15D043460133DBB2EA
S2140002804C4E35004C48591CC9B21133FF335B0045
S214000290F318DB889BB2002B00D17EE02A5CD2B23A
S2140002A00B009142EFD91822002104A8484B98472A
S2140002B05A465B460133092B57D9931C092B10D895
S2140002C01133FF335B003B49CB18DB889BB2002B16
S2140002D007D0029B1F33FF335B00CB185B88C9181F
S2140002E00591D31C092B10D81133FF335B0031491D
S2140002F0CB18DB889BB2002B07D0029B2033FF3342
S2140003005B00CB185B88C9180691131D092B10D803
S2140003101133FF335B002749CB18DB889BB2002BD9
S21400032007D0029B2133FF335B00CB185B88C918CC
S21400033007910532092A11D81132FF3252001D4B9F
S2140003409A18D3889BB2002B08D01A4A029B2233F5
S214000350FF335B00D3185B88D218089204A8A04726
S214000360099C002C00D066E76CE71133FF335B0076
S2140003701049CB18DB889BB2002B9ED0029B1E3305
S214000380FF335B00CB185B88C918049195E70C4CCB
S21400039051E70B4C4FE70A4C4DE7094C4BE7C0467C
S2140003A092D3010008000020D9600000512400000C
S2140003B04E020000D81D00204F020000258B0100D1
S2140003C084D30100AD8B010015240000C923000072
S2140003D07987010070B504000B220D490D4DA84722
S2140003E02026A67220000B3010220B49A847A676BE
S2140003F020001B300C220949A8472623E65420007B
S214000400273009220649A84700223023E25470BD4F
S21400041050D30100558601005CD301006CD3010067
S21400042078D3010010B5082812D0102812D01B2847
S21400043012D018384342584180008000074BC458F9
S2140004402000074B984781B22000064B984710BD06
S2140004500120F2E70220F0E70320EEE774DF010058
S214000460AD8B010015240000F8B50B78022B03D0E5
S214000470042B00D19CE0F8BD4B7B083BDAB2162A71
S214000480F9D89300974AD3589F460D7B002D30D05D
S2140004908E68002E2DD0944C082294492000944B50
S2140004A098472000934FB8470104090C0919307883
S2140004B00A22914B98472000B84703041B0C2022C1
S2140004C0E254013080B20219711C8C4B1B1ADB03FC
S2140004D0013D1B0CAB4200DD2B00D8B2884B984781
S2140004E0814C2000834B984781B22000854B98476B
S2140004F0C1E70C218448834B9847BCE70921834811
S214000500804B9847B7E70D2181487E4B9847B2E766
S2140005100D2180487B4B9847ADE706217E48794BF6
S2140005209847A8E71E217D48764B9847A3E70D21FC
S2140005307B48744B98479EE709217A48714B984749
S21400054099E70D2178486F4B984794E7152177482F
S2140005506C4B98478FE70A2175486A4B98478AE79D
S21400056011217448674B984785E70A217248654B06
S214000570984780E704217148624B98477BE707213C
S2140005806F48604B984776E710216E485D4B98475A
S21400059071E714216C485B4B98476CE70F216B485A
S2140005A0584B984767E70E216948564B984762E7CD
S2140005B00B791E2B00D95EE79B00664AD3589F46F0
S2140005C0092165484F4B984755E70B2163484D4B2B
S2140005D0984750E70D2162484A4B98474BE7102151
S2140005E06048484B984746E70A215F48454B98477E
S2140005F041E70F215D48434B98473CE711215C4893
S214000600404B984737E70A215A483E4B984732E70F
S214000610122159483B4B98472DE710215748394B34
S214000620984728E712215648364B984723E7092172
S2140006303648344B98471EE70D213548314B9847CE
S21400064019E70D2133482F4B984714E70621324807
S2140006502C4B98470FE71E2130482A4B98470AE74D
S2140006600D212F48274B984705E709212D48254B94
S214000670984700E70D212C48224B9847FBE61521AA
S2140006802A48204B9847F6E60A2129481D4B9847EA
S214000690F1E6112127481B4B9847ECE60A2126482D
S2140006A0184B9847E7E604212448164B9847E2E69D
S2140006B007212348134B9847DDE610212148114BAC
S2140006C09847D8E6142120480E4B9847D3E60F21CA
S2140006D01E480C4B9847CEE60E211D48094B9847FE
S2140006E0C9E6C0464CDC0100AC0F002024DD01004A
S2140006F055860100AD8B01006180010012020000EA
S2140007000D260000152400002CDD01003CDD010054
S21400071084D3010048DD010058DD010060DD0100E2
S21400072080DD010090DD01009CDD0100ACDD0100F4
S214000730C4DD0100D0DD0100E4DD0100F0DD0100D4
S214000740F8DD010000DE010014DE01002CDE0100F1
S2140007503CDE0100A8DC01004CDE010058DE010092
S21400076064DE010074DE010088DE010094DE010014
S214000770A4DE0100B8DE0100C4DE0100D8DE010000
S214000780ECDE0100014B18807047C046C81D0020F3
S21400079010B504490448054B98470022044B1A80BC
S2140007A010BDC0462504000069040000D5EA00001C
S2140007B0C81D0020F0B5D646474680B585B0070070
S2140007C02F4D00242F4B9A46E3B2984601942E688C
S2140007D031003868D04700280DD001340435102C7D
S2140007E0F2D1063CA400284BE3587B6105B00CBC54
S2140007F090469A46F0BD02AB9C1D00232380220043
S21400080000213530214B98472388019A1341DB0796
S21400081005D431001E481F4B98471624E2E71E4BAE
S2140008209847002818D002AB5C1DFF2323701B4B93
S2140008309847220000212420144B984723784345EC
S21400084013D0174B98474046164B98470400082885
S2140008500FD1154B98470EE04046124B98470400C0
S214000860082808D1104B984705E040460D4B98479E
S21400087004000A4B984700220C4B1A80B2E7C04689
S21400088034DF010085270000A8DF0100D1FE00004C
S2140008900CDF01002D8801007DC90000E1C90000C1
S2140008A0C5C90000FD230100CDCA0000C81D0020F8
S2140008B010B50400084A09490068094B98470A23FE
S2140008C0012804D99B00074A9B58636110BD064B5C
S2140008D098470300F6E7C04600DF010004DF01008A
S2140008E049280000A8DF0100CDFA0000F0B585B069
S2140008F0070080681D4B984704001D4A1D4938684C
S2140009001D4B98470190060002ABD91D78681B4B1B
S21400091098470A23002805D0A4B26508FF2D01D801
S214000920012E05D99B00164A9B587B6105B0F0BD89
S214000930B868144B98470A230028F3D0124AB968BF
S2140009402000124B9847E30700D5013510486B4648
S2140009501B79037002AB07331B7843700A4B436066
S21400096005720C4B98470300DCE7C046AD8B0100D0
S21400097028DF01002CDF0100492800006D2600005A
S214000980A8DF0100D9250000AC0F0020E1280000F8
S214000990CC1D0020ADEC000010B582B004006B4604
S2140009A0D91D0068084B98470A23002805D19B00EC
S2140009B0064A9B58636102B010BD6B46D91D0720DE
S2140009C0034B98470300F2E76D260000A8DF0100FE
S2140009D0811E010070B582B006006B46DD1D2A0040
S2140009E000210720054B9847054C28780A2221004D
S2140009F0044B9847746102B070BDC046D1FE00003B
S214000A00AC0F00206180010010B582B004000068C1
S214000A10094B98476B46D8710A23012805D99B00D5
S214000A20064A9B58636102B010BD6B46D91D06206E
S214000A30034B98470300F2E715280000A8DF0100E3
S214000A40811E010030B583B005006B46DC1D220018
S214000A5000210620044B984723789B00034A9B58A6
S214000A606B6103B030BDC046D1FE000088DF0100D8
S214000A7010B582B004000068144B98470A2300287B
S214000A8005D19B00124A9B58636102B010BD01AAB3
S214000A90216808200F4B98470A230028F1D001AAA6
S214000AA093781B02517809045B18D1785B1812788A
S214000AB012069B18009369460220074B98470300CE
S214000AC006490A78082002430A70DAE7D9250000AA
S214000AD0A8DF0100E1280000811E0100C81D0020DB
S214000AE030B583B0050001AA00210220094B9847C3
S214000AF0019B6A46D3701A0A69468A701A0C4A70B5
S214000B001B0E0B70044C22000420044B98476C61AB
S214000B1003B030BDD1FE0000AC0F00200D26000053
S214000B2010B5040000680E4B98470A23002804D12D
S214000B309B000C4A9B58636110BD0B4A216810202D
S214000B400A4B98470A230028F2D007490020084B92
S214000B509847030007490A78012002430A70E7E72E
S214000B60D9250000A8DF0100AC0F0020E128000016
S214000B70811E0100C81D002030B583B005006A46FE
S214000B8000210020054B9847054C220069460820A6
S214000B90044B98476C6103B030BDC046D1FE0000E0
S214000BA0AC0F00200D26000010B5040000680E4BA8
S214000BB098470A23002804D19B000C4A9B5863617F
S214000BC010BD0B4A216810200A4B98470A230028BC
S214000BD0F2D007490120084B9847030007490A78D6
S214000BE0022002430A70E7E7D9250000A8DF0100CB
S214000BF0AC0F0020E1280000811E0100C81D002067
S214000C0030B583B005006A4600210120054B9847A1
S214000C10054C220069460820044B98476C6103B0D7
S214000C2030BDC046D1FE0000AC0F00200D260000EF
S214000C3010B5040000680E4B98470A23002804D11C
S214000C409B000C4A9B58636110BD0B4A216820200C
S214000C500A4B98470A230028F2D007490420084B7D
S214000C609847030007490A78102002430A70E7E70E
S214000C70D9250000A8DF0100AC0F0020E128000005
S214000C80811E0100C81D002010B5040000680E4B30
S214000C9098470A23002804D19B000C4A9B5863619E
S214000CA010BD0B4A216820200A4B98470A230028CB
S214000CB0F2D007490520084B9847030007490A78F1
S214000CC0202002430A70E7E7D9250000A8DF0100CC
S214000CD0AC0F0020E1280000811E0100C81D002086
S214000CE010B5040000680E4B98470A23002804D16C
S214000CF09B000C4A9B58636110BD0B4A216820205C
S214000D000A4B98470A230028F2D007490320084BCD
S214000D109847030007490A78042002430A70E7E769
S214000D20D9250000A8DF0100AC0F0020E128000054
S214000D30811E0100C81D002030B585B004000A22BF
S214000D4000214068144B984705000822002101A89E
S214000D50124B98470F2169442068114B98470A2385
S214000D60002805D19B000F4A9B58636105B030BD33
S214000D70012252420A2160680B4B98470A2300283A
S214000D80F0D001A905336B441B780B704D601B2017
S214000D90064B98470300E5E7B98E01007987010006
S214000DA06D260000A8DF010041270000811E01001B
S214000DB030B583B004000D4B43616B46D91C006808
S214000DC00B4B9847002801D103B030BD01AA6B46F3
S214000DD0D91C1B20074B98470828F5D1064D0A2238
S214000DE001992800054B98476561EDE784D301001B
S214000DF06D260000D1FE0000AC0F0020C5260000C6
S214000E00F0B5CE4600B586B006004068234B98473E
S214000E10019005000F2102AB9C4661443068204BD0
S214000E2098470A23002801D0012D07D99B001D4AA8
S214000E309B58736106B004BC9146F0BD053302AA08
S214000E40944663441A78511E0A230729EED8CC002C
S214000E50E4B2D300013B9C4214DC03AF6B1E9D4101
S214000E60114B99463C703D7139001D20C84701342E
S214000E70E4B20F2302AA944663441A78D300013BD7
S214000E809C42EFDD03A93F320A70019A531E9A4135
S214000E900A711D20044B98470300C7E71528000079
S214000EA06D260000A8DF0100811E0100F0B5C646D1
S214000EB000B582B00600234B43616B46D91D00681F
S214000EC0214B9847002830D06B46DA79531E072B03
S214000ED02BD8DC00E4B2D300013B9C421BDC6B4603
S214000EE0DD1D1A4F1A4B984606E00134E4B22A7804
S214000EF0D300013B9C420EDC6B469A1D29001D2048
S214000F00B8470828F1D16B4606331B789B0042464B
S214000F109B587361E9E76B46591D3F320A709A1D6C
S214000F201D200A4B9847082803D002B004BC904600
S214000F30F0BD6B4606331B789B00054A9B587361D1
S214000F40F3E7C04684D301006D260000D1FE000002
S214000F5088DF010070B584B004000822002101A8D3
S214000F60114B98476068114B984705000F2169445C
S214000F7020680F4B98470A23002801D0012D05D979
S214000F809B000C4A9B58636104B070BD01A90533F1
S214000F906B441B780B706B1E9D410D711D20064B1C
S214000FA098470300ECE7C046798701001528000043
S214000FB06D260000A8DF0100811E010010B582B07A
S214000FC004000D4B43616B46991D00680B4B984718
S214000FD0002801D102B010BD6B46DA1D991D1D20F8
S214000FE0074B98470828F5D16B4607331B789B00BC
S214000FF0044A9B586361EDE784D301006D26000028
S214001000D1FE000088DF010010B584B0040008227D
S214001010002101A81C4B98470F21694420681B4BF0
S21400102098470A23002805D19B00194A9B586361FC
S21400103004B010BD0E2169446068144B98470A231B
S2140010400028F1D00D216944A068104B98470A2368
S2140010500028E9D004336B4418780A230F28E3D815
S21400106003336B441A780A230F2ADDD801A9053307
S2140010706B441B780B70120102430A711C20054B4F
S21400108098470300D0E7C046798701006D26000028
S214001090A8DF0100811E0100F0B583B00400154BE7
S2140010A043616B46D91D0068134B9847002801D151
S2140010B003B0F0BD6B469A1DD91D1C200F4B9847F8
S2140010C00828F5D16B469E790D4D073030400A2230
S2140010D029000C4FB84728000B4B984703041B0CFD
S2140010E02022EA54013081B249193009163AB8472D
S2140010F06561DDE784D301006D260000D1FE0000A7
S214001100AC0F002061800100AD8B010010B582B0ED
S21400111004006B469A1D002124200B4B98476B4613
S214001120D91D2068094B98470A23002805D19B0043
S214001130074A9B58636102B010BD6B46D91D082054
S214001140044B98470300F2E7D1FE00006D2600002E
S214001150A8DF0100811E010070B582B006006B4654
S214001160DD1D2A0000210820054B9847054C2878ED
S2140011700A222100044B9847746102B070BDC04635
S214001180D1FE0000AC0F00206180010070B50500A4
S214001190044B98470100044C0A222000034B984752
S2140011A06C6170BDE9ED0000AC0F0020C5260000A4
S2140011B010B50400024B9847024B636110BDC04651
S2140011C0ADEE000024DF0100014B43617047C046CE
S2140011D024DF010030B585B004000A2200214068F3
S2140011E0124B984705000F2169442068104B98471A
S2140011F00A23002805D19B000E4A9B58636105B060
S21400120030BD012252420A2160680B4B98470A23E0
S2140012100028F0D001A905336B441B780B710195AB
S2140012201520064B98470300E5E7C046B98E010037
S2140012306D260000A8DF010041270000811E010086
S214001240F0B583B00400114B43616A4600211520B7
S2140012500F4B9847082801D003B0F0BD009F6B469F
S21400126019790C4D0A2228000B4EB04728000B4B6C
S2140012709847FF2303402022EA540130C0B24019A9
S214001280163A3900B0476561E6E7C04684D30100E8
S214001290D1FE0000AC0F0020C5260000AD8B01007B
S2140012A030B583B0040000680F4DA8476B46188021
S2140012B06068A8476B465880A068A8476B46988029
S2140012C0E068A8476B4698712069A847431E984176
S2140012D06B46D87169462820044B98478000044B1B
S2140012E0C358636103B030BDDD7F0100811E01007D
S2140012F0A8DF0100F0B5CE46474680B583B00500AE
S2140013006A4600212820274B98478200264BD35850
S2140013106B61082804D003B00CBC90469946F0BD1B
S2140013206B461988214C0A222000214EB047200027
S214001330204B99469847FF273B00034020229046C3
S214001340E2540130C1B209196B460220185E0A2227
S214001350194B98472000C8473B0003404246E254DA
S2140013606B4699880130C0B200190A22B0472000A7
S214001370C8473B0003404246E2546B469979013029
S214001380C0B200190A22B0472000C84707404346AB
S214001390E3556B46D9790130C0B200190A22B0472E
S2140013A06C61B8E7D1FE0000A8DF0100AC0F00209A
S2140013B0C5260000AD8B01006180010010B5040059
S2140013C0024B9847024B636110BDC046ADEF00006C
S2140013D024DF010010B582B004000A220021006854
S2140013E00B4B98470190012252420A212068094B74
S2140013F098470A23002805D19B00074A9B5863613B
S21400140002B010BD01A90A20044B98470300F3E779
S214001410B98E010041270000A8DF0100811E0100EF
S21400142010B582B004000A22002100680B4B9847D2
S2140014300190012252420A212068094B98470A234C
S214001440002805D19B00074A9B58636102B010BD77
S21400145001A90B20044B98470300F3E7B98E01005F
S21400146041270000A8DF0100811E0100F8B5040036
S21400147005682800104B9847060028000F4B984731
S2140014800A23002806D0276838000B4B98470A2303
S214001490022804D09B000A4A9B586361F8BD094D98
S2140014A0B0B22A003900084B984729000920074B9C
S2140014B098470300EEE7C046AD8B0100D925000033
S2140014C0A8DF0100AC0F0020E1280000811E01000B
S2140014D030B583B005006B46DA1D00210920064BA7
S2140014E09847064C22006B46D91D0120044B9847AE
S2140014F06C6103B030BDC046D1FE0000AC0F0020CA
S2140015000D26000030B583B0050001AA00210A2090
S214001510054B9847054C0A2201992000044B984732
S2140015206C6103B030BDC046D1FE0000AC0F002099
S214001530C526000030B583B0050001AA00210B20A7
S214001540054B9847054C0A2201992000044B984702
S2140015506C6103B030BDC046D1FE0000AC0F002069
S214001560C526000010B582B004000A2200210068DB
S2140015700C4B98476B46D8800B4A052120680B4BCE
S21400158098470A23002805D19B00094A9B586361A7
S21400159002B010BD6B46991D1920064B98470300F4
S2140015A0F2E7C046B98E0100FFFF000041270000A9
S2140015B0A8DF0100811E010070B582B006006B46F0
S2140015C09D1D2A0000212020054B9847054C2888A1
S2140015D00A222100044B9847746102B070BDC046D1
S2140015E0D1FE0000AC0F0020718F010010B582B054
S2140015F0040000680C4B98476B46D880FF220221F7
S21400160020680A4B98470A23002805D19B00084A01
S2140016109B58636102B010BD6B46991D2020054B98
S21400162098470300F2E7C046DD7F0100412700002F
S214001630A8DF0100811E010010B582B0040000681A
S214001640094B98476B46D8710A23012805D99B0099
S214001650064A9B58636102B010BD6B46D91D4020F8
S214001660034B98470300F2E715280000A8DF0100A7
S214001670811E010030B583B0050001AA002121209B
S214001680094B9847019B6A46D3701A0A69468A70C6
S2140016901A0C4A701B0E0B70044C22000420044BDC
S2140016A098476C6103B030BDD1FE0000AC0F00203F
S2140016B00D26000010B582B0040000680C4B984759
S2140016C06B46D871FF22032120680A4B98470A23ED
S2140016D0002805D19B00084A9B58636102B010BDE4
S2140016E06B46D91D1820054B98470300F2E7C04605
S2140016F0DD7F010041270000A8DF0100811E0100F8
S21400170010B582B0040000680C4B98476B46D87141
S214001710FF22032120680A4B98470A23002805D198
S2140017209B00084A9B58636102B010BD6B46D91DEA
S2140017301320054B98470300F2E7C046DD7F010003
S21400174041270000A8DF0100811E010010B582B00D
S214001750040000680C4B98476B46D871FF220321A3
S21400176020680A4B98470A23002805D19B00084AA0
S2140017709B58636102B010BD6B46D91D1420054B03
S21400178098470300F2E7C046DD7F010041270000CE
S214001790A8DF0100811E010070B582B006006B460E
S2140017A0DD1D2A0000211320054B9847054C28789C
S2140017B00A222100044B9847746102B070BDC046EF
S2140017C0D1FE0000AC0F0020718F010070B582B012
S2140017D006006B46DD1D2A0000211420054B9847A5
S2140017E0054C28780A222100044B9847746102B001
S2140017F070BDC046D1FE0000AC0F0020718F010006
S21400180070B582B006006B46DD1D2A00002122203E
S214001810054B9847054C28780A222100044B984728
S214001820746102B070BDC046D1FE0000AC0F00204F
S214001830718F010070B582B006006B46DD1D2A0070
S21400184000212320054B9847054C28780A222100C2
S214001850044B9847746102B070BDC046D1FE0000CC
S214001860AC0F0020718F010010B582B00400006834
S214001870094B98476B46D8710A23012805D99B0067
S214001880064A9B58636102B010BD6B46D91D1720EF
S214001890034B98470300F2E715280000A8DF010075
S2140018A0811E010030B583B005006B46DC1D2200AA
S2140018B000211720044B984723789B00034A9B5827
S2140018C06B6103B030BDC046D1FE000088DF01006A
S2140018D010B582B0040000680C4B98476B46D88061
S2140018E00B4A052120680B4B98470A23002805D190
S2140018F09B00094A9B58636102B010BD6B46991D58
S2140019000C20064B98470300F2E7C046DD7F010037
S214001910FFFF000041270000A8DF0100811E010034
S21400192070B582B006006B469D1D2A0000210C2073
S214001930054B9847054C28880A222100044B9847F7
S214001940746102B070BDC046D1FE0000AC0F00202E
S214001950718F010070B582B006006B469D1D2A008F
S21400196000211F20054B9847054C28880A22210095
S214001970044B9847746102B070BDC046D1FE0000AB
S214001980AC0F0020718F010030B583B005006B46A8
S214001990DC1D220000212420044B984723789B005E
S2140019A0034A9B586B6103B030BDC046D1FE0000B1
S2140019B034DF010010B582B0040003681B782022D3
S2140019C09343412B08D00A20432B0DD080000A4BAE
S2140019D0C358636102B010BD6B46D91D01230B705E
S2140019E01A20064B9847F1E76B46D91D04230B7067
S2140019F01030024B9847E9E7A8DF0100811E01007E
S214001A0030B583B005006B46DC1D220000211A208D
S214001A100A4B98472378022B05D0042B0AD0012BBB
S214001A200AD0032300E001239B00054A9B586B6104
S214001A3003B030BD0223F7E70023F5E7D1FE000030
S214001A4098DF010030B583B005006B46DC1D220030
S214001A5000212520114B98472378032B0AD0052B0D
S214001A6012D00F4B41221A7000225A700C4B6B6139
S214001A7003B030BD0A4B41221A701B3A5A701C3212
S214001A809A700022DA70F1E7054B41221A701B3A71
S214001A905A701D329A700022DA70E7E7D1FE000015
S214001AA0AC0F002030B583B0040000680C4B98479C
S214001AB00A23012805D99B000A4A9B58636103B094
S214001AC030BD01AD431E984168706068064B98476C
S214001AD0287029002920054B98470300EBE7C046ED
S214001AE015280000A8DF0100DD7F01005D2A010047
S214001AF010B582B0040000680C4B98476B46991DE1
S214001B000870DA1D29200A4B9847082805D080005F
S214001B10084BC358636102B010BD6B4607331B7891
S214001B209B00054A9B586361F5E7C046DD7F0100D0
S214001B30D1FE0000A8DF010088DF010070B582B08A
S214001B40050000680C4B98476B46D91C087001AA24
S214001B502D200A4B984704000A2201990848094B91
S214001B609847082C05D0A400074BE3586B6102B0D9
S214001B7070BD034B6B61FAE7DD7F0100D1FE00000C
S214001B80AC0F0020C5260000A8DF010030B585B0E8
S214001B9004000068174B98470A23002805D19B00CD
S214001BA0154A9B58636105B030BD03AA216808201A
S214001BB0124B98470A230028F1D003AAD0789378CE
S214001BC01B02517809045B181B1801AD1278120627
S214001BD0D318029360680A4B9847287029002A2079
S214001BE0084B984743B208490A78402002430A70D7
S214001BF0D5E7C046D9250000A8DF0100E12800008F
S214001C00DD7F01005D2A0100C81D002030B585B0CB
S214001C1004000068104B98476B46D91D087003AA4D
S214001C202A200E4B9847039B02AAD370190A91707C
S214001C30190C51701B0E1370082805D08000084B35
S214001C40C358636105B030BD064D2A0002A90438AA
S214001C50054B98476561F5E7DD7F0100D1FE000082
S214001C60A8DF0100AC0F00200D26000010B586B0DE
S214001C7004000068114B98470A23002805D19B00F2
S214001C800F4A9B58636106B010BD6B465A1D21680B
S214001C9020200C4B98470A230028F0D060680A4B97
S214001CA0984701A908702B20084B9847030008495D
S214001CB008788022524202430A70E0E7D9250000E5
S214001CC0A8DF0100E1280000DD7F01005D2A010099
S214001CD0C81D002010B586B004000068114B984758
S214001CE00A23002805D19B000F4A9B58636106B063
S214001CF010BD6B465A1D216820200C4B98470A23BE
S214001D000028F0D060680A4B984701A908702C207C
S214001D10084B9847030008494A78012002434A7056
S214001D20E1E7C046D9250000A8DF0100E128000051
S214001D30DD7F01005D2A0100C81D002010B582B0BD
S214001D4004000A2200210068104B984701900122E7
S214001D5052420A2120680E4B98470A23002805D1D4
S214001D609B000C4A9B58636102B010BD60680A4B2A
S214001D7098476B46187069463020084B9847030012
S214001D8007494A78022002434A70E9E7B98E010003
S214001D9041270000A8DF0100DD7F01005D2A010069
S214001DA0C81D002070B582B0050000680C4B98472F
S214001DB06B46D91C087001AA30200A4B98470400CD
S214001DC00A2201990848094B9847082C05D0A40018
S214001DD0074BE3586B6102B070BD034B6B61FAE7CB
S214001DE0DD7F0100D1FE0000AC0F0020C5260000FC
S214001DF0A8DF010010B582B004006B46591D0068CC
S214001E000A4B98470A23002805D19B00084A9B588E
S214001E10636102B010BD6068064B984701A9087060
S214001E203120054B98470300EFE7C0466D260000BB
S214001E30A8DF0100DD7F01005D2A010030B583B018
S214001E40040000680C4B98476B46991D0870DA1D15
S214001E5031200A4B9847082805D08000084BC35805
S214001E60636103B030BD074D6B46D8790A2229005E
S214001E70054B98476561F4E7DD7F0100D1FE000061
S214001E80A8DF0100AC0F00206180010070B582B0B1
S214001E9006006B469D1D2A0000213620054B9847FC
S214001EA0054C0023E85E0A222100044B9847746123
S214001EB002B070BDD1FE0000AC0F002061800100B2
S214001EC030B583B005006B46DC1D220000213720AC
S214001ED0044B984723789B00034A9B586B6103B0DA
S214001EE030BDC046D1FE000090DF010030B583B0A3
S214001EF005006B46DC1D220000213820044B984765
S214001F0023789B00034A9B586B6103B030BDC046E4
S214001F10D1FE000090DF010070B582B006006B466F
S214001F20DD1D2A0000213920054B9847054C2878EE
S214001F300A222100044B9847746102B070BDC04667
S214001F40D1FE0000AC0F0020718F010030B583B0C9
S214001F50050001AA00213A20054B9847054C0A22A5
S214001F6021000198044B98476C6103B030BDC04611
S214001F70D1FE0000AC0F0020718F010070B582B05A
S214001F8006006B46DD1D2A0000213B20054B9847C6
S214001F90054C28780A222100044B9847746102B049
S214001FA070BDC046D1FE0000AC0F0020718F01004E
S214001FB070B582B006006B46DD1D2A0000213C206D
S214001FC0054B9847054C28780A222100044B984771
S214001FD0746102B070BDC046D1FE0000AC0F002098
S214001FE0718F010070B582B006006B469D1D2A00F9
S214001FF000213D20054B9847054C28880A222100E1
S214002000044B9847746102B070BDC046D1FE000014
S214002010AC0F0020718F010030B583B0050001AA17
S21400202000213E20054B9847054C0A2221000198C6
S214002030044B98476C6103B030BDC046D1FE00002B
S214002040AC0F0020718F010010B582B0040000684C
S2140020500A4B98470A23012805D99B00084A9B5833
S214002060636102B010BD6B46D91D431E98410870CF
S2140020703420044B98470300EFE7C04615280000BD
S214002080A8DF0100811E010010B582B004006B4677
S214002090D91D0068084B98470A23002805D19B00E5
S2140020A0064A9B58636102B010BD6B46D91D3F209F
S2140020B0034B98470300F2E76D260000A8DF0100F7
S2140020C0811E010010B582B004006B46DA1D0021A7
S2140020D03420094B9847082805D08000074BC35882
S2140020E0636102B010BD6B4607331B789B00044A41
S2140020F09B586361F5E7C046D1FE0000A8DF0100EB
S21400210088DF010010B50400044B9847044B98473D
S21400211021000448044B984710BDC046C163000028
S214002120615E000054E101002D88010010B5094BE6
S2140021309847094B1B78002B00D110BD074B9847DA
S214002140074B98470748084B98470022024B1A70DF
S214002150F3E7C046F9660000E4090020C16300000A
S214002160615E000034E101002D88010030B583B0C7
S21400217005006846054B9847054C2200694608202E
S214002180044B98476C6103B030BDC046BD66000086
S214002190AC0F00200D26000070B50500024C200094
S2140021A0024B98476C6170BDAC0F0020D503000051
S2140021B070B5050000210C20054B9847054C064BD2
S2140021C018680A222100054B98476C6170BDC0460E
S2140021D0B1C80000AC0F0020C0110020718F0100B4
S2140021E010B504000A22002100680E4B98470E4BDB
S2140021F01860012252420A2120680C4B984701239E
S214002200002804D19B000A4A9B58636110BD064B08
S21400221019680848084B984700210C20074B984738
S2140022200023EFE7B98E0100C0110020412700000F
S21400223048E1010018E101002D8801004DC80000AA
S214002240BFF34F8F034A044BDA60BFF34F8FC0468D
S214002250FDE7C0460400FA0500ED00E010B5054BAA
S2140022609847BFF34F8F044A044BDA60BFF34F8F93
S214002270C046FDE7C5C900000400FA0500ED00E011
S21400228030B585B0040001AB00220192FF21197120
S21400229003920A3200214068244B984705002449DF
S2140022A02068244B9847002809D023492068214BF2
S2140022B09847002838D0214B636105B030BD002216
S2140022C01F49204BEB188B42F5D801951E4B039304
S2140022D013005A1E9341013301AA137101221B4BAE
S2140022E01A701B4B18781B4B98470028E5D0002324
S2140022F06A46137001335370937069460420164D76
S214002300A84769460520A847144B9847144B98479A
S21400231001A8144B98470028CFD1134B9847134B6E
S2140023209847134B6361C8E70122C9E7B98E0100DD
S21400233020E101008527000028E1010084D3010088
S214002340C8BBCE0718FCFFFF05210000E4090020EB
S214002350E5090020692A010001330000AD5F000096
S214002360E56300007D670000C1630000615E000059
S21400237030E1010010B584B001AC2000074B98474F
S2140023801C230193002363600233E372013BA372B4
S21400239021000820024B984704B010BD992E00007B
S2140023A0AD2E000010B5002208210448044B9847C3
S2140023B000210820034B984710BDC0462D21000081
S2140023C0592D0000852D000070B50B4C00230B4ADC
S2140023D0A3540B4AA3540132A3520A4AA3520A4BEF
S2140023E0E01814220021094DA847094BE0181422D2
S2140023F00021A84770BDC046D81D00204E02000030
S2140024004F020000520200002602000079870100F9
S2140024103A02000070B505000C1E0FD00A4E07E009
S214002420FF212800B047FF3CA4B2FF35002C05D0A2
S214002430FF2CF5D8E1B22800034B98470221034849
S214002440014B984770BDC0461960000068E1010066
S21400245070B5082847D094239B00584AD35A9BB29D
S21400246089229200934200D9A1E0202800D173E08F
S214002470524B942189005A5A92B2541CA4B25C5210
S21400248098544F481A5A013292B21A525B5A9BB26B
S214002490012B59D9494A535A023BD35C0D2B53D1D1
S2140024A0535A013BD35C0A2B4ED113000C00525AF0
S2140024B0023A00219954434D5A5D195A023989B29D
S2140024C01132FF3252009A18D1805A5D195B185AA1
S2140024D0091A89B21D32FF3252009A185180012122
S2140024E0394A995430E094239B00344AD35A9BB21D
S2140024F0002B29D094239B00D35A013BD35C002B9E
S21400250023D113002F49525C013AD2B25A545A5C76
S2140025101132FF3252009A18D28892B228481A52C4
S2140025205A5C1132FF3252009A180020D0805A5C52
S2140025301D32FF3252009B18588020499422920088
S2140025408B5A013B9BB28B5270BD1C491C4A8B5A5E
S214002550013B9BB28B52F0E71A4B184AD35CDBB2B6
S214002560082B24D8130094218900525A92B2501C8A
S21400257080B2585200259D5412481A5C104C1E5BBF
S214002580B6B21132FF3252009A18D6801A5C595AE7
S2140025901E5B0139891B89B21D32FF3252009A1820
S2140025A051801A5C0132D2B21A541D53CCE7074B45
S2140025B0984703210648074B9847C5E7D81D0020D3
S2140025C0520200004F0200004E020000C923000025
S2140025D030E101001524000070B50378002B0ED002
S2140025E00400094E4425B0472378C01843781D429E
S2140025F007D001342378002BF5D1012002E001201A
S21400260000E0002070BDC04691800100F0B5CE46C7
S214002610474680B583B080460192002819D00C004A
S2140026201500471EFFB20137CF190F4E30239946CB
S21400263003E001340235BC420BD02078102229007A
S214002640B04723780F2BF4D82B786B704B462B7043
S214002650EFE743465B0000220199CA5403B00CBC66
S21400266090469946F0BDC04661800100F0B583B043
S21400267004000191104B9847060020000F4B984726
S2140026800700B6B2032E14D8FF2812D82378002BE2
S2140026900BD00B4D0426A8472378C01843781E425B
S2140026A007D001342378002BF5D1019B1F70012041
S2140026B000E0002003B0F0BDAD8B0100DD7F01001F
S2140026C091800100F0B5D64600B58EB003900C00A0
S2140026D001920025184B9A4605AF184E09E037318F
S2140026E0E95501992000B04704006B1C002809D06A
S2140026F01D00029501992000D0470929EFDC3031F2
S214002700E955EEE7029B002B14DB05AB5B19039A39
S21400271004A9C81C19781170013B01328342F9D113
S214002720029E01360023039A935510000EB004BC97
S2140027309246F0BD0026F5E75D500100514F0100BE
S21400274070B584B0050016000A2200210A4B98478F
S21400275004000A22010001A8084B984701A9280096
S214002760074B984703000020B44201D904B070BD5F
S21400277058425841C0B2F9E7B98E0100C52600009C
S214002780258B0100F0B5DE4657464E46C0B582B0F2
S21400279004000E00002806D0002909D01C4B9B46DA
S2140027A003279A4611E000292FD00878404226E0F9
S2140027B0007824E0203501950FE0D3B2994519D171
S2140027C02378002B16D0013401362578D8474019D7
S2140027D043783B400195012BECD06B461B7999461C
S2140027E03578D047401943783B402A00012BE4D186
S2140027F02032E2E7FF20019F07401040381A02B05F
S2140028001CBC91469A46A346F0BD0020F7E7C0469A
S2140028109180010010B504000849094B9847002331
S214002820002801D1180010BD06492000044B984727
S2140028300300581E83410133F4E7C046FCE0010064
S2140028408527000000E1010070B504001500084B64
S21400285098470023002801D1180070BD29002000E9
S214002860034B98470300581E83410133F4E7C046E4
S21400287085270000F8B5CE46474680B50700164BBC
S214002880984701380026072821D8041E1CDB01259E
S214002890124B9946442398460AE01A00303A402BD9
S2140028A001D9373B1A006A43B6182D01013C0ED4F5
S2140028B0C8473B5DC01842784146114206D0602B9F
S2140028C0EBD9573B1A00EEE7002600E0042630005E
S2140028D00CBC90469946F8BDAD8B01009180010076
S2140028E0F0B5DE4657464E464546E0B583B0040092
S2140028F00F00904608001F4B984783B25D08DA0722
S21400290001D4013DADB20020A34206D003B03CBCCA
S21400291090469946A246AB46F0BD002C27D001AEA5
S21400292000239A46144B994613E0302333703B1924
S214002930013B1B787370013CA4B25346B370AB46A0
S214002940C3443000C8475B461870013DADB2002C4A
S2140029500BD0012CE9D93B199A1E12783270013B34
S2140029601B787370023CA4B2E7E70120CEE7012093
S214002970CCE7C046AD8B01007528000070B500207E
S214002980084B98470500084CFA218900A047074BDA
S214002990186007492800A047064B18600522064B1A
S2140029A01A6070BD3D550000514F01000C0000201C
S2140029B040420F001000002010E000E030B5084B49
S2140029C01C68084A002580214902013807D3002CDC
S2140029D0FBD05460956013680B42FCD0F5E730BD21
S2140029E01000002010E000E030B5084B1C68084AD4
S2140029F0002580214902013807D3002CFBD0546003
S214002A00956013680B42FCD0F5E730BD0C00002043
S214002A1010E000E00C4B1B68002B06D1EFF3108390
S214002A20002B07D00022094B1A70074A136801339F
S214002A301360704772B6BFF35F8F0022044B1A70A4
S214002A400132024B1A70F0E7E8090020EC0900207A
S214002A5014000020084B1A68013A1A601B68002B05
S214002A6009D1064B1B78002B05D00122044B1A70A7
S214002A70BFF35F8F62B67047E8090020EC090020BC
S214002A8014000020F0B5C64600B582B001AC0125A2
S214002A90657000239846A370257021001320124EFF
S214002AA0B047124F80231B03BB6125702100122004
S214002AB0B0478023DB02BB61257021000D20B047A4
S214002AC080239B017B61257021000920B04780236D
S214002AD09B007B6143462370657021001C20B04735
S214002AE002B004BC9046F0BD013300000028004050
S214002AF070B52F4B1C6823689A795D791540EA07F4
S214002B002AD501229A716269931C636123689B8CA3
S214002B109BB21380238B013B9BB22383002B15D0E3
S214002B20637F002B18D02268D3795BB2002B13DBAF
S214002B30138C9BB2002BFBD1137E02210B43137622
S214002B402268138C9BB2002BFBD105E00123226880
S214002B501371237F052B16D06B0708D50423226834
S214002B609371E37E9B0702D5A37E9B0717D4AB0722
S214002B7008D5022322689371E37E5B0702D5A37E05
S214002B805B0710D470BD00232377E37EDB07E3D515
S214002B90A37EDB07E0D52000A3689847DCE720008B
S214002BA0E3689847E3E7236920009847EAE7C046CA
S214002BB02C20002001230370002343708370C37011
S214002BC003710F2242718371C371037270470268EA
S214002BD0136802210B431360704703230268537186
S214002BE00268D3710268136802218B431360704732
S214002BF070B504000D00D3780371216053784371DB
S214002C001379837113789B029178C9020B4351782C
S214002C1009020B43D17889000B43117949010B4314
S214002C2091798903D07940030143107A0003014368
S214002C3052791204F020000302400A4313431E0098
S214002C402B689B0701D42E6070BD2000034B98476D
S214002C502E602000024B9847F6E7C046DB2B0000AC
S214002C60CF2B000070B5054CE56980239B012B43F4
S214002C70E36101230B60024B984770BD00040040DF
S214002C80F12B000070B54379012B05D0002B10D036
S214002C90022B0DD1082500E00625002310C99A1C3A
S214002CA092000668B446624454600133AB42F5D3E2
S214002CB070BD0425F1E7000010B50023026813720A
S214002CC00F4B426813400F4A93420AD00379032BF6
S214002CD00ED00C001034036804C99A638C42FAD1F3
S214002CE010BD03680A689A6303684A689A63F7E740
S214002CF08379023B012BECD803680A689A63EFE7F6
S214002D00FF00FF0003000100002302681372104B4F
S214002D10426813400F4A93420AD00379032B0ED021
S214002D200A00103203689B6B08C18A42FAD17047CA
S214002D3003689B6B0B6003689B6B4B60F7E78379BC
S214002D40023B012BECD803689B6B0B60EFE7C04699
S214002D50FF00FF00030001001723002A01D018001F
S214002D6070478B00064A9B58002B03D0834205D041
S214002D701D23F4E7890088500023F0E70023EEE7E0
S214002D80342000201723002901D0180070470022A5
S214002D901F2800D8024A0123834013610023F4E76A
S214002DA00024004070B50022104B1A700023104912
S214002DB01F25104E0D4C0AE00D4908E0237801331C
S214002DC0DBB223700F2B10D800211F2BF4D928005C
S214002DD018400122824048691042EFD04A619B00A9
S214002DE09B59002BEAD09847E8E770BD30200020BA
S214002DF00024004034200020064A137802210B43AA
S214002E001370012053681942FCD153681842F9D157
S214002E107047C04600240040064A137802218B43C0
S214002E201370012053681942FCD153681842F9D137
S214002E307047C0460024004010B5124A51698023EE
S214002E409B000B435361104A137801210B43137008
S214002E500131012053681942FCD153681842F9D158
S214002E60094A137810210B431370084B19004031A0
S214002E70002204C38B42FCD10822054B1A60054B86
S214002E80984710BD00040040002400403420002075
S214002E9000E100E0F92D00000023036043600122FA
S214002EA0027283720132C27243727047F0B583B009
S214002EB005000C001C4B984701A900234B70CB70F3
S214002EC023790B70237A8B702078184B9847002153
S214002ED01F2D00D8164907222A409200E77AA37AC7
S214002EE0002B01D008231F43EB089B00CB18D869A2
S214002EF00F269640B04397403A000243DA61637A61
S214002F00002B0BD18A690123AB40DB431B041B0C4F
S214002F1013408B61074B984703B0F0BD8A690123C5
S214002F20AB4013438B61F5E7192E000015570000E0
S214002F3000240040F92D000010B51E4A93690421B4
S214002F400B4393611C4B2022FF321A831A7D052304
S214002F50D20701D4180010BD03781B02C0229200CD
S214002F6013404178C901FF220A4013438178490083
S214002F701E220A401343C27892048021C9020A40E6
S214002F80134302791204C02189020A4013430A4AF5
S214002F90536093685B035B0F084908249C400C80D1
S214002FA093684B8043780B71138BDB05DB0F1B019B
S214002FB0D0E7C0460004004000400041F009002071
S214002FC030B5304A1488538863438B420BD2802234
S214002FD092012D4BCB18934205D92C4C18232C4A22
S214002FE08A18A2420ED82B4B5C688022D20222435B
S214002FF05A602022FF321A831B7DDB0704D4254B40
S2140030005C600523180030BD452829D88300224A75
S214003010D3589F461F4B1B8BDB0503D51D4B5C60AF
S2140030201023EFE7890849001A4BD96103E08908A5
S2140030304900184BD961FD2305001A3D1D4013D0E9
S214003040A5231B021843134B1880190001220B7D81
S2140030501342FCD0002D0FD00E4B5C600023D1E74E
S2140030600C4B5C601723CDE70A4B59688022D202CE
S2140030700A435A605B68E3E7064A536807490B4011
S2140030805360E9E7F009002000C07FFFFF1F000043
S2140030900000C0FF004000416CE10100FFFFFBFFA5
S2140030A0F8B52F4B1C885B886343834207D22D4EAE
S2140030B018252D4BC318B34206D8012600E000267B
S2140030C0631E1825184201D02800F8BD013D944221
S2140030D0FAD3264B1B7D123DDB07F5D5244C234B3C
S2140030E01C801D0001242B7D2342FCD02024FF34AD
S2140030F01E4B1C83002A2CD0012305009D43002371
S214003100541EA44609E0CF187F783F023C432C802B
S21400311002339BB202359A4204D9CC5C6345F2DB9B
S214003120A4B2F4E70E4B1B790025002BCCD13F2A26
S214003130CAD8002E06D10022010004200D4B984765
S2140031400500C1E7002201001C200A4B9847050035
S214003150BAE7034B1B790025002BEAD0B4E7C0463C
S214003160F0090020FF1F00000000C0FF00400041E3
S21400317044A5FFFFC12F000070B51B4B1C885B8861
S2140031806343834205D2194E1825194BC318B34220
S21400319003D8631E1825184201D0280070BD013DD3
S2140031A09442FAD3134B1B7D123DDB07F5D5202442
S2140031B0FF34104B1C83002A14D0012398430023AD
S2140031C0561E04E002339BB202309A4208D90488A5
S2140031D0A4B2CC54B342F5DACD18240A6C70F1E7E9
S2140031E00025DAE70025D8E7F0090020FF1F0000D9
S2140031F00000C0FF0040004110B5224A13885288E4
S2140032005A43824207D2204C182220494118A14234
S21400321007D8012400E000249B00013B1822184236
S21400322001D0100010BD1A4B1B7D133ADB07F8D5F2
S214003230174B2022FF321A8380084000D861002CEA
S2140032401BD059688022D2020A435A605A68114A33
S2140032501A800F4901220B7D1342FCD0002C04D0AB
S2140032600B4A53680C490B405360094B1A8B1C20C1
S2140032700240501E82419200D3E7084A044B1A804F
S214003280E7E7C046F0090020FF1F00000000C0FF6F
S214003290004000411AA5FFFFFFFFFBFF02A5FFFF4E
S2140032A0154B2022FF321A839B685903490F183AA0
S2140032B0FF3A8A40027043801B0D83810F4B1B88A8
S2140032C05B065B0F072B10D00622D21A042393400E
S2140032D043600A4B1B8807221340072B08D007229F
S2140032E0D21A042393408360704700234360F0E7BC
S2140032F000238360F8E7C04600400041004080009D
S21400330000B583B001AB80221A700A785A704A78EA
S2140033109A708A78DA701900014B984703B000BD9E
S2140033201557000003681869431E9841C0B27047DD
S21400333070B5040006680422084B1A60084D200089
S214003340A8470028FBD13388022213433380044D5C
S2140033502000A8470028FBD170BDC04600E100E071
S2140033602533000070B504000668042180230A4A4D
S214003370D1500A4D2000A8470028FBD1084B3381C6
S214003380B3813388022293433380044D2000A8473C
S2140033900028FBD170BDC04600E100E025330000E8
S2140033A0FF81FFFF70B5040006680A4B98470023AC
S2140033B0A386E386084D2000A8470028FBD1338863
S2140033C0012213433380044D2000A8470028FBD178
S2140033D070BDC0466533000025330000F8B5040014
S2140033E00E0007680C4D2000A8470028FBD1237963
S2140033F0002B09D01720012B05D1BE61064D2000F9
S214003400A8470028FBD1F8BD044B17209E42FAD8E7
S214003410B6B23E83F2E7C04625330000FFFF000049
S21400342070B504000668084D2000A8470028FBD1A8
S2140034302379002B04D00020012B00D1B06970BD89
S214003440308B80B2FBE7C04625330000F0B583B072
S2140034500400019115000668134F2000B8470028A5
S214003460FBD12379002B0ED0012B19D11730012D5B
S21400347017D80835AD00019BAB510B4D2000A8476F
S2140034800028FBD10DE01720022D0AD8074B019A21
S2140034909A4206D86B469B8810356D00AB53ECE716
S2140034A01A2003B0F0BDC04625330000FFFF000021
S2140034B070B50400150001601F4A516980235B0047
S2140034C00B43536105221D4B1A611D4B9847AB7881
S2140034D023711C4B1C6022682B79DB0329880B4365
S2140034E09BB21380AB78002B13D01720012B0FD183
S2140034F013889BB21380EB78002B03D013888021AF
S2140035000B431380A968002220000F4B9847002029
S21400351070BD138804210B431380EB781720002B13
S214003520F6D10022A9682000074EB047E9680122BC
S2140035302000B0470020EBE70004004000100040E9
S214003540A5330000742000204D3400000A2A09D05C
S214003550072A07D90379002B10D0012B12D1163376
S214003560092A09D8931C9B001950838E012191408B
S2140035700B439BB2838600231800704717230A2A42
S214003580FAD8EFE71723F7E710B502680A2911D033
S214003590072912D980235B000C00083CA340C024F6
S2140035A0A40023405381C38E01228A4013439BB25A
S2140035B0C38610BD044B5381F5E701248C40FF23DE
S2140035C023405381EFE7C0460080FFFF10B5026836
S2140035D00A2910D0072911D980235B000C00083C6B
S2140035E0A340C024A40023401381C38E01228A4036
S2140035F09343C38610BD044B1381F6E701248C4029
S214003600FF2323401381F0E70080FFFFF8B5DE4676
S21400361057464E464546E0B52B4B1B689A461E68F5
S214003620DB8E5246928E1A409046B28973891340BA
S2140036301AB2002A08DBFF271F402AD000240123E5
S2140036409946FE339B4614E043465B0507D41F4B62
S214003650B3813CBC90469946A246AB46F8BD53465D
S2140036601B6B9847F3E75B461D40B5810134082C79
S214003670EFD023004D46A5402F42F4D042462241CB
S21400368049461142EFD002339B0052469B5898475A
S214003690E9E7DA050AD54346DB0503D480235B0059
S2140036A0B381D6E753469B6A9847F7E79B05D0D584
S2140036B043469B0503D480239B00B381C9E753464A
S2140036C0DB6A9847F7E7C046742000200080FFFFBB
S2140036D001680722CB691A42FCD17047F0B5D6467E
S2140036E04F464646C0B58AB007000E001400396043
S2140036F00800A54B9847052800D13DE10500123586
S214003700A24AD169012383400B43D36109A9237BD5
S2140037100B70EDB228009E4B984728009D4B9847AB
S214003720207B00219C4B984733681C209B0705D5BF
S2140037300AB01CBC90469946A246F0BD33681738BE
S214003740DB07F5D43868904B9946984705009349AF
S214003750934B9847AD00934BEF5000233B767B7618
S21400376000257B83BB832522BD543B621433336024
S2140037703B6898461800C8478146802308AA1370FD
S214003780557001239370D570E069266A002800D131
S214003790AFE008AB1870022308AA5370000CC0B242
S2140037A01100814B9847002E00D1A7E008AB1E7091
S2140037B0022308AA5370360CF0B211007A4B9847D1
S2140037C0A38AFB80E38A3B81237E8022002B04D1E0
S2140037D0764B9B789B07DB0FDA01A16823690B43C6
S2140037E013432422A25C002A02D08022D20513436F
S2140037F0A26A13432C22A25C002A03D180229204E0
S214003800914202D18022120513432D22A25C002A87
S21400381002D08022120413432E22A25C002A02D079
S2140038208022D20313434246126813434246136073
S21400383080235B0053604D461235E8B25C4B9847D8
S2140038400790FA239B0022685A43914663689A467B
S214003850584DA847009001914B465800A847029043
S2140038600391208EA84704900591534F534A544B1A
S21400387000980199B84702000B0004980599B847CC
S214003880504E0022504BB047049005914846A8473A
S21400389002000B0004980599B84702000B004B4D38
S2140038A000980199A847029A039BB0470022484B0C
S2140038B0A847029A039B474DA847474B98470500E1
S2140038C080239B04A2689A421ED003004020FF2D4E
S2140038D000D92DE700240020FF251D40240625439F
S2140038E00004FF231B04184005434346DD60002008
S2140038F01EE700214046394B98474AE701214046DB
S214003900364B9847060051E7FA26B60053465E4304
S2140039100098019902000B002A4CA04700900191E4
S2140039203000244B984700222D4BB84702000B006E
S21400393000980199274CA0470022254B234CA0470E
S214003940254B9847041E0CD031000798254B984706
S2140039500238001B2B00FF2D0CD8FF28BCD94020B6
S214003960E6E67100481E079B9C4660441D4B984740
S2140039700138EFE74020DBE6044A136A02210B43D6
S21400398013621825C2E6C0461D430000000400402E
S21400399019560000A955000075410000113E0000B0
S2140039A059430000782000201557000000200041F1
S2140039B03D560000757E01005D72010095D626E832
S2140039C00B2E113ED5630100000024405D770100F8
S2140039D00000F03FF5690100897D0100C14100004B
S2140039E000000840514F010003681A7E920707D571
S2140039F002221A765B8B9B074120DB171840704724
S214003A005A8B520706D55968C02292020A435A605A
S214003A101820F4E70020F2E730B5026800230124FE
S214003A200225117E21420BD1117E294206D1013397
S214003A309BB201899942F4D8122002E0002000E0EF
S214003A40002030BD10B5046862688023DB02134393
S214003A5063606162024B98470123237610BDC0461F
S214003A60193A0000F0B5DE4657464E464546E0B5E4
S214003A7083B00600894605684C882B681B01DB0F5F
S214003A809A464B7A002B2BD16B68584A13406B60D2
S214003A904B461B7A002B27D14B461B885B004A46B9
S214003AA0527A92031343012213436B623000504B49
S214003AB0984701905346002B03D04B465B88012B5A
S214003AC03BD06B68494A13406B60019B002B3AD091
S214003AD0019803B03CBC90469946A246AB46F0BD62
S214003AE0897A444B9847CFE74B461B885B004A468B
S214003AF0527A920313438022120213436B62300001
S214003B003B4B984701906B68384A13406B6000281F
S214003B10DED13000384B984701900028D8D14B466C
S214003B201B881B0A782213435B004A46527A92038C
S214003B3001210A4313436B62B8E76A688023DB02FD
S214003B4013436B60C1E730002B4B98470190002869
S214003B50BED1013CA4B28046284B9B4615E0012C02
S214003B6020D03000264B984743465F1CBFB2282320
S214003B70EB5C4A4652684146535430001C4B98470B
S214003B80013CA4B2002815D1B8465C4514D06B8B16
S214003B909B0627D5F37A002BE3D05346002BDED1C5
S214003BA0002CDED16A688023DB0213436B60013C85
S214003BB0A4B2EAE7B8460190B37A002B09D13000E8
S214003BC00F4B98472823EA5C4B465B6841465A549D
S214003BD07EE730000A4B98476A68C0239B0213436F
S214003BE06B60ECE74123019372E7C046FFFFFBFFE3
S214003BF0193A0000453A0000E9390000FFFF0000CE
S214003C00D1360000F0B5DE4657464E464546E0B58E
S214003C1083B006000F0005684C88324B98477B7AC5
S214003C20002B1DD16B68304A13406B603B7A002B2B
S214003C301BD03B885B007A7A9203134380221202E1
S214003C4013436B623000294B98470190002813D02D
S214003C50019803B03CBC90469946A246AB46F0BDE0
S214003C60B97A3000224B9847DCE73B885B007A7ACB
S214003C70920313436B62E5E730001E4B9847031E22
S214003C800190E5D1A046002420339946154B9B466B
S214003C90164B9A46444515D06B8B4A4613421DD0A8
S214003CA03000D8477B681A5D2823EA543000D04796
S214003CB0002806D16B8B01345B07EBD51E230193DE
S214003CC000E00190B37A002BC2D03000054B984735
S214003CD06A68C0239B0213436B60B9E741230193D4
S214003CE0B6E7C046D1360000FFFFFBFF193A0000DA
S214003CF0453A0000E939000010B5838B9BB20522D7
S214003D00002B01D0100010BD01338372C372024B2A
S214003D1098470200F6E7C046653A000010B5838B68
S214003D209BB20522002B01D0100010BD8372013318
S214003D30C372024B98470200F6E7C046053C0000F7
S214003D4001680722CB691A42FCD1704770B504009F
S214003D5006683268458B838BED1AADB2838B013BC8
S214003D609BB2838313011DD5C37A002B03D0838BAC
S214003D709BB2012B10D0A38B9BB2002B02D1A37A4F
S214003D80002B1CD12000124B9847236A5D1928236C
S214003D90F35CDBB22B7070BD72688023DB021343CA
S214003DA07360E8E7C37A002BE5D0838B9BB2002BC9
S214003DB0E1D172688023DB0213437360DBE72000E7
S214003DC0034B98477268C0239B0213437360D9E77E
S214003DD0413D000070B5040005686B8B5B0703D59A
S214003DE01E222523C25470BD468B838BF61AB6B2AC
S214003DF0838B013B9BB28383044B9847236A9E19AF
S214003E003378DBB22822AB54EDE7C046413D0000D4
S214003E1070B58000754BC45825682B681B01DA0FF7
S214003E20637E267E1E40638B9BB2002B03D1A38B42
S214003E309BB2002B23D1638B9BB2002B08D0A38BA5
S214003E409BB2002B04D12533E35C052B00D16DE03B
S214003E50638B9BB2002B24D0A38B9BB2002B20D06D
S214003E606B8B9B0600D581E0002A04D0A38B9BB207
S214003E70012B00D17AE041222523E25411E02B7E6B
S214003E80DB0707D501232B766B8B9B072ED54122AC
S214003E902523E254A38B9BB263832523E35C052B87
S214003EA038D0638B9BB2002B07D0A38B9BB2002B22
S214003EB003D12533E35C052B64D02523E35C052B77
S214003EC013D02523E35C002B0FD003232B75002390
S214003ED06383A3832533E35C412B03D0A37A002BB3
S214003EE000D075E0730700D57BE070BD6B8B5B0779
S214003EF0D0D518222523E2540023A383A37A002BCF
S214003F00C8D020003A4B98476A68C0239B021343E8
S214003F106B60BFE71F33E35C002B03D02000354BFC
S214003F209847BEE72000344B9847BAE71F33E35C58
S214003F30002B00D08CE703332B75002363832533D7
S214003F400022E254A37A002B07D101232B76F30735
S214003F50A7D5E36820009847A3E72000244B98479E
S214003F606A68C0239B0213436B60F0E72423E35C7C
S214003F70002B03D12000204B984792E720001D4BD2
S214003F8098478EE71F33E35C012B96D12B7E9B0769
S214003F9001D502232B7603232B7500236383253359
S214003FA00022E254B30703D52423E35C012B0BD095
S214003FB0F30700D481E72423E35C002B00D07CE7E2
S214003FC0E3682000984778E723692000984774E75D
S214003FD02000074B98476A68E023DB0213436B60B8
S214003FE080E76369200098477FE7C0467820002076
S214003FF0413D00004D3D0000D53D0000F0B5DE46D9
S21400400057464E464546E0B587B0804604911600B2
S2140040101F000022002300218B463F2401202100A0
S214004020009601975C4603944446059413E02024CA
S214004030641A0500E540A84614E0009C019D121B8A
S214004040AB415C464D462C43A346039C45462C4359
S2140040500394013925D3202464420C19E7D40500C3
S214004060A540A84604008C40A14692185B41140067
S2140040701D00059E4F463E40B446049E47463E40C1
S214004080B246664657463E4303D0060026433200F5
S2140040902B00009C019D9D42DBD8CED19442D8D8FF
S2140040A0CBE7039B5846190007B03CBC90469946A0
S2140040B0A246AB46F0BD10B5490840230024814215
S2140040C002D2180010BD1C00091A631C9BB288425D
S2140040D0F9D94023FF2CF4D814800023F1E7000020
S2140040E0F0B583B00F00160008AA117804004C4300
S2140040F04022BC4202D9100003B0F0BD002B14D100
S214004100020008000021194CA04701003A000023D5
S2140041100020174CA04700220123121A8B41120CD4
S2140041201B041A4332800022E5E70022012BF9D156
S2140041300A00002300210D4CA04702000B0000924D
S2140041400193380000210A4CA047050080239B01FC
S21400415040229842CFD8790FF800009A019BA047DA
S214004160EA00821AD2B252032A43DBE76D530100FB
S214004170FD3F000010B582B004000E4B1B78002BEC
S21400418007D0002905D10B4B5B78834210D01D2049
S2140041900CE001A90C701120074B98471120074B23
S2140041A09847044B5C7001221A70002002B010BDC4
S2140041B00020FBE7F809002019560000A95500006A
S2140041C03C4B984232D00AD93B4B98424ED03B4BA0
S2140041D0984255D03A4B984238D0002070478423F6
S2140041E0DB0598420CD0374B9842F6D1012917D000
S2140041F0002957D0022915D0032915D00020EDE755
S214004200012907D000294BD0022905D0032905D063
S2140042100020E3E72C48E1E72C48DFE72C48DDE701
S2140042202C48DBE72C48D9E72C48D7E7012907D0EC
S214004230002939D0022905D0032905D00020CDE772
S2140042402748CBE72748C9E72748C7E7012907D00B
S21400425000292BD0022905D0032905D00020BDE770
S2140042602248BBE72248B9E72248B7E7022903D02D
S214004270032903D00020B1E71F48AFE71F48ADE78A
S214004280012907D0002913D0022905D0032905D01B
S2140042900020A3E71A48A1E71A489FE71A489DE7B7
S2140042A01A489BE7032099E7194897E7194895E7C6
S2140042B0194893E70008004200100042000400433B
S2140042C0000C004200040042030005000300060044
S2140042D0030007000300010003001E0003001F0088
S2140042E00300090003000A0003000B00030011008E
S2140042F0030012000300130003000E0003000F006B
S2140043000300170003001800030019000300040050
S21400431003000800030010000300160030B587B045
S2140043200B4B6A4632CB32C232CB32C2009B834240
S2140043300BD001239A0069465258824206D00133B8
S214004340062BF7D1002007B030BD0023D8B2FAE71D
S21400435084E2010070470000F0B50A4B1B78002B82
S2140043600CD1094F094E0A4D0024DE515A1914602B
S2140043700433182BF9D10122024B1A708000024B2D
S214004380C150F0BDFA090020FC090020554300008A
S2140043907820002000B583B008236A4613700133E6
S2140043A05370013393700133D370013313710133AB
S2140043B05371034B98476B46185603B000BDC04672
S2140043C01D43000010B5024B1B680020984710BD27
S2140043D0FC09002010B5024B5B680120984710BD11
S2140043E0FC09002010B5024B9B680220984710BDC0
S2140043F0FC09002010B5024BDB680320984710BD6F
S214004400FC09002010B5024B1B690420984710BD1C
S214004410FC09002010B5024B5B690520984710BDCB
S214004420FC090020F0B5D6464F464646C0B58AB0D1
S21400443006000F00140031600B689B070AD40B6857
S2140044400520DB0700D497E00AB01CBC90469946CE
S214004450A246F0BD936A0593D36A0693136B07933F
S214004460536B089300250AE038009A4B98470EE0F5
S2140044700F231840814530D10135042D31D0E9B2E3
S214004480AB0002AA0C201218D0580028ECD0431C0F
S214004490F2D001040B0C9946000CC3B29C460023D4
S2140044A0020605D463465B09DB018B4A904643440B
S2140044B01F226046024098184030007882468020CE
S2140044C05146C907D6D552089B1830331878C0B263
S2140044D06346DB07CCD50009CCE7002333601C20FD
S2140044E0B2E711207D4B984722780025012A26D076
S2140044F06368A2681343E26813432B43227C617C03
S214004500002901D080210B43A17C002902D0802104
S21400451089020A43E17C002902D0802189000A43EF
S214004520217D002902D0802189010A4339680220B2
S21400453003438B4217D0002333601C2084E704AA71
S2140045400100A069664B984703001720002B00D097
S2140045507AE73B7BDBB204AA127805309A4200D099
S21400456072E70C35C4E77B689342E4D12378737115
S214004570237CB371002067E708005A4B984705284C
S21400458000D19FE0030012335749CD6901228240D3
S2140045902A43CA6109A92425625D0A70DBB2019329
S2140045A01800524B98470198514B9847605D002180
S2140045B0504B98472378012B19D03368984604ABA4
S2140045C080221A7000225A7001219970DA702378BE
S2140045D0002B01D104AB9A70A36A0593E36A069395
S2140045E0236B0793636B0893002705AD11E03B68C8
S2140045F00C2213433B60E0E74046364B98470DE0FD
S21400460004A90870000CC0B23B4B98470137042F32
S21400461007D0F9B2BB0058590028EDD0431CEFD1A3
S214004620F4E723787371237CB371A37CF371237D45
S2140046303372002202ABDA802378012B2AD063681B
S214004640A2681343E2681343217C627C002A03D1EC
S2140046502A4A9278920701D580221343A27C002A28
S21400466002D0802292021143E27C002A02D08022ED
S21400467092001143227D002A02D08022920111432B
S2140046804246126813434246136053680B43536016
S2140046900020D9E63068134B98471230C0B20F4B53
S2140046A09847010002AB9A1DA0690D4B984703007E
S2140046B01720002B00D0C7E602AB06331B78424615
S2140046C01373BCE7084A136A02210B4313621823CC
S2140046D060E7C046C1410000002800403D5600008B
S2140046E0B74000001D4300000004004019560000BB
S2140046F0A955000075410000155700000020004134
S21400470010B544791523012C01D0180010BD047A89
S2140047100023002CF9D1002A58D04B78002B44D027
S21400472003681B7EDB0710D40A78D1090023002912
S21400473004D15309DB012E498C4663441F211140E6
S21400474001228A409A610523DFE70A78D40900230C
S214004750002C04D15309DB01254CA44663441F24D6
S21400476014400122A2405A6103681A7ED20701D57E
S2140047708A789A62C2790023002AC6D10268042188
S214004780137E0B42FCD0117E00234907BDD5538B08
S2140047905B0701D5042353838379012B02D0936AE8
S2140047A00023B2E7936A0023AFE70A78D109002313
S2140047B0002904D15309DB010D498C4663441F21AF
S2140047C0114001228A405A6100239EE70A78D109E7
S2140047D00023002904D15309DB0105498C466344B4
S2140047E01F21114001228A409A6100238DE7C046AE
S2140047F000280040F0B5DE4657464E464546E0B532
S21400480091B005000C00160029600800C44B9847BC
S214004810020005280DD00700123703002168052086
S214004820C90709D511B03CBC90469946A246AB468E
S214004830F0BD18270123F1E7216817308907F1D466
S214004840052A49D0B749C86901229A401300034394
S214004850CB610FA92D239846F35C0B70FFB238008E
S214004860B14B98473800B14B98474346F05C00215F
S214004870AF4B9847F37A6B712423F35CAB71252317
S214004880F35CEB71F37E2B72337F6B722B6898466A
S2140048901800A34B9847052826D0123000220E2376
S2140048A006A98C4663441A80328A02928023DB0172
S2140048B09A4200D1A7E019D9C023DB01029A9A4296
S2140048C000D19BE080231B029A4200D023E1032301
S2140048D006930023079312E09249086A043A9A4026
S2140048E0130003430B62B4E71820D7E780239B012D
S2140048F09A4200D00FE1102306930F3B07933368CC
S2140049000593F3689B4673690393337E04932623CB
S214004910F35C9A4673689946002B00D19BE080238F
S2140049205B05994504D12723F35C002B00D180E07A
S214004930737E002B02D0B37E424693730E2306AAE4
S214004940944663441B8842469381059B5A4613430C
S214004950039A13434A461343029F1F43049B1B02BA
S2140049601F4353465B071F432723F35C002B01D1ED
S21400497004331F43737E9B02327F52021343727FBF
S214004980120213432422B25C520413432522B25C63
S21400499012041343B17AF27A114319433389FF2B79
S2140049A07DD080225204174319432C23F35C002B3E
S2140049B003D1604B9B789B0701D580231F432A6851
S2140049C0D369002BFCD1434659602A68D369002B73
S2140049D0FCD143461F600EAB80221A7000225A702C
S2140049E0DA709A70336B0A93736B0B93B36B0C93FA
S2140049F0F36B02930D9300270AAE5EE0082306933E
S214004A00073B07937BE733680593F3689B46736918
S214004A100393337E04932623F35C9A467368994681
S214004A20002B14D080235B05994500D17BE700203E
S214004A3020E0336A1F00C0B23F4B984701000E22A9
S214004A4006AB9C46624438003C4B984712E008236D
S214004A500693002307932723F35C002B0ED0069BB8
S214004A600093079B0E2206A98C466244B16A306A00
S214004A70334FB847002800D0D4E659E7336A1F0002
S214004A80C0B22D4B98470100069B0093079B0E2251
S214004A9006A8844662443800294FB847EAE7F37E02
S214004AA0002B82D08023DB041F437EE72000254BAB
S214004AB0984707E00137042F0DD0F9B2BB0098598C
S214004AC00028F3D0431CF5D00EA90870000CC0B225
S214004AD01D4B9847EEE70023EB602B616B61AB61E3
S214004AE0EB612B62AB626B620022EB85AB853033E9
S214004AF0EA540133EA540133EA540133EA5428688D
S214004B00074B984704001149114B9847A400114BD6
S214004B10E550002086E61023069300230793EEE672
S214004B201D4300000004004019560000A95500006F
S214004B3075410000002000413D560000B7400000CF
S214004B40E1400000C1410000155700003D4D000047
S214004B505943000078200020C2791C23002A01D186
S214004B6018007047C28D92B2173B002AF8D102682F
S214004B7011850221137E0B42FCD00023F0E78279D8
S214004B801C23002A01D118007047828D92B2173B71
S214004B90002AF8D10268107E4007F4D5538BDBB2AA
S214004BA098061DD0980703D5022353831833EAE7E7
S214004BB0580703D5042353831A33E4E7D80703D5ED
S214004BC0012353831233DEE7D80603D5102353831D
S214004BD03233D8E79B0603D5202353832133D2E70D
S214004BE0138D0B800023CEE7F0B5CE46474680B542
S214004BF083B0050001911720002A04D103B00CBC35
S214004C0090469946F0BDEB790530002BF6D02C681F
S214004C10013A93B2994600260127204B984611E0A8
S214004C20731C9BB2019A915D6A79012A17D089B2EA
S214004C301E0028001A4B98474B46013B9BB29946EC
S214004C40434513D0237E3B42EAD1144B227E3A42A0
S214004C50E6D1012B19D0013B002BF7D1E0E7023655
S214004C60B6B2019AD35C1B021943E2E7237E9B0788
S214004C700DD40A4B0221227E0A420AD1012B0AD009
S214004C80013B002BF7D10020B8E71220B6E7002042
S214004C90B4E70020B2E71220B0E7C046FFFF0000EE
S214004CA0594B0000F0B5D64600B584B0040001911B
S214004CB01720002A03D104B004BC9246F0BDA379A5
S214004CC00530002BF7D02668013A93B29A460025A5
S214004CD0042719E0002302AAD380911D2000154B5B
S214004CE098470028E7D1691C89B202ABDB88019A95
S214004CF053556279012A14D00D005346013B9BB2EE
S214004D009A460D4B9A45D6D0337E3B42E2D10A4BAB
S214004D10327E3A42DED1012B09D0013B002BF7D17F
S214004D20D8E70235ADB21B0A019A5354E5E71220C4
S214004D30C1E7C0467F4B0000FFFF0000F8B58000CB
S214004D40624BC5582C68E369002BFCD1237EA67DF8
S214004D501E403023EB5C3122AF5C1F40F30722D5A8
S214004D60EB8D9BB2002B1CD0AA6A1378DBB2511CC9
S214004D70A962697901290ED09BB2DB05DB0D23857C
S214004D80EB8D013B9BB2EB85002B0CD101332375D9
S214004D900133A37507E0517809020B430232AA6279
S214004DA0EBE701232375B30706D5022323750022FC
S214004DB03133EA54FB071AD4730765D5AB8D9BB223
S214004DC0002B5FD0638BDBB21A0714D43F2213404C
S214004DD0002B34D09A0711D51A223223EA54303BDE
S214004DE063837B0750D528006B6998474CE0280002
S214004DF0EB689847E0E737221340E9E75A0705D5FE
S214004E001E223223EA542E3B6383EAE7DA0705D5EF
S214004E1013223223EA54313B6383E2E7DA0605D5F0
S214004E2042223223EA54223B6383DAE720221A42E4
S214004E30D7D021323223EA54123B6383D1E7238D45
S214004E40DB05DB0DDAB2696A0A706A6A511C6962B0
S214004E506979012910D0AB8D013B9BB2AB85002B45
S214004E6012D10433237500222E33EA54BB070BD528
S214004E7028002B69984707E01B0A53706B6A0133BA
S214004E806B62E8E704232375F30604D51023237525
S214004E902376FB060ED4B30604D52023237523768B
S214004EA03B070BD4330704D5082323752376BB06AC
S214004EB008D4F8BD2800EB699847ECE72800AB69F2
S214004EC09847EFE72B6A28009847F2E778200020FB
S214004ED010B5082803D880001C4B1B589F4600209E
S214004EE032E01B4B18692FE01A4B187D0007800F25
S214004EF0431C1948584327E0154B586924E0144BC7
S214004F001B6800209B071FD5124980225200CB68E1
S214004F101342FCD00E4B1B685B0701D40F4813E00E
S214004F2000200F4B98470A4B9B681B041B0C5843EA
S214004F300AE02823074AD35C00209B0704D5044BCD
S214004F40D86801E08020000210BDC0469CE2010047
S214004F50140A0020000C004000093D00006CDC0232
S214004F603D56000070B50B4C237D85784678027858
S214004F700321114089000C2293430B430B3A324025
S214004F80920140218B431343ED017F2213402B43B4
S214004F90237570BD000C0040F0B5D6464F46464619
S214004FA0C0B5204B9A465B69457801784C424C4127
S214004FB0A14681788C46C1788846467A077A847AF4
S214004FC040681949486101214846800004229343FD
S214004FD0034340460840C000043293430343604600
S214004FE0084000010832934303430F40BF014020AE
S214004FF083433B430E40F6014030834333437938C6
S21400500005402D02094803402B4321400903084868
S21400501003400B43524653611CBC90469946A24639
S214005020F0BDC04600100040140A0020FFF8FFFF45
S214005030FFEFFFFF10B5837A9B061B0C8289920553
S214005040920D13431A494B60037A427A13438288BF
S214005050C488224313434278D201134382789201D4
S21400506013430B600378042B11D0202B0ED1837BC7
S2140050709B06428A1343028A12040E490A401343CF
S2140050800B4A936011680C4B0B43136010BD837B77
S2140050909B06428A1343028A120406490A401343B7
S2140050A0034A9360136804210B431360EEE7C0467F
S2140050B0140A00200000FF0324040000082803D878
S2140050C08000294B1B589F4617204BE0274A137D2C
S2140050D002210B431375002044E0254A9369022100
S2140050E00B43936100203DE0204A138A02210B43C4
S2140050F01382002036E01E4A536902210B43536197
S21400510000202FE01B490B68022213430B60174B4D
S2140051101A831900FE32CB681342FCD0154A9168F8
S214005120124B19625268DA6100221A8319000132A2
S214005130FF32CB681342FCD00E4B1B689BB20B4A67
S214005140138300200EE0094928228B5C02200343CB
S2140051508B5408003821263A435C1342FCD10020C9
S21400516000E000207047C046C0E20100000C00408E
S21400517000100040140A0020082832D880001A4B7D
S2140051801B589F46194A137D02218B431375002036
S2140051907047174A936902218B4393610020F7E713
S2140051A0124A138A02218B4313820020F0E7104A2A
S2140051B0536902218B4353610020E9E70D4B1A68BF
S2140051C002218A431A601B689BB2084A1383002098
S2140051D0DEE7064928228B5C022083438B5400209E
S2140051E0D6E71720D4E7C046E4E20100000C0040F2
S2140051F000100040140A0020F0B5CE46474680B5A1
S2140052008DB080225200764B9A60FD3A754B9A60BC
S214005210754A53681E218B431A390B43536080230B
S214005220DB059B78022B0FD08023DB059B785BB2D7
S214005230002B09DB8023DB0501229A7101329A706C
S2140052401A009379002BFCD009A800230370802253
S2140052501202426083700122C270037283720332AC
S21400526042704372614B98470520614B98476149ED
S2140052700122CB681A42FCD001A901254D6000240A
S2140052804C700C724C7203230B7000205A4B9847DC
S21400529006205A4B98476B465C701D709C7068469B
S2140052A0574B98470620524B98474D491022CB68DB
S2140052B01A42FCD001A901234B6000244C70053330
S2140052C00B700C724C7200204B4B984704AB0022BC
S2140052D09C80DC801A725A729A703F2199813B3901
S2140052E019705A70474B1B689B0E3F2B00D174E019
S2140052F004A88372B723DB00438207238373383303
S2140053000382414B9847414B984701AC01260296D1
S2140053100025657065720523994623702672210064
S2140053200120354B984698470120394FB84765709D
S21400533006232370257265724B46636021000220A7
S214005340C0470220B847267021000020314B9847FE
S2140053500020314B98470720254B98472049D022FC
S2140053601201CB6813409342FBD12C4C0123A3714E
S2140053706371237101A900234B700B724B720733C4
S2140053800B70013B4B6000201B4B98470020204BC6
S21400539098470020224B98472179C9B2214B98475D
S2140053A0214B984214D88023DB059B78002B0FD026
S2140053B08023DB059B785BB2002B09DB8023DB05B3
S2140053C001229A7100229A701A009379002BFCD061
S2140053D00DB00CBC90469946F0BD203B88E7C04611
S2140053E0000C00400014004000400041994F0000AF
S2140053F0BD500000001000405154000079510000DC
S214005400654F000020608000355000002D540000DD
S214005410FD54000019560000A95500000004004085
S2140054203D550000514F0100001BB700064A536966
S21400543040210B4353610122044B1A7019000B786C
S2140054401342FCD17047C0460004004000180040DC
S21400545070B504000D784B78002B02D08023DB005B
S2140054601D434B7A002B02D080231B011D43486846
S21400547001280FD9431E184231D102282DD9022304
S214005480002201325B009842FBD880235B011D435B
S214005490120415430B7A002B02D080239B011D4378
S2140054A00426A6401149124A4B6813401E42FBD1FF
S2140054B0104B9847A4000D4B9C466444226A8023F8
S2140054C05B001A402A4322626146094A4B68134031
S2140054D01E42FBD1084B984770BD0022D5E700045A
S2140054E080239B0018430543D4E7C04600180040BD
S2140054F0FC070000152A0000552A000010B504001D
S2140055000422824009480A4943680B401A42FBD1EC
S214005510084B9847A400054B9C466444226A8023A7
S2140055205B0013432362044B984710BD00180040ED
S214005530FC070000152A0000552A0000F8B50400F4
S214005540042282401248134943680B401A42FBD19A
S214005550114B98470E4F0834A400E0590007000F7F
S2140055600E4B98470600E559ED04ED0FE459240C60
S2140055700B4B9847002D07D1012C07D9210030008E
S214005580084B9847060001E00134E6403000F8BDBD
S21400559000180040FC070000152A0000D14E00004D
S2140055A0552A0000514F010010B50400094B9847DA
S2140055B0A000094B9C4660448022835840210B4340
S2140055C083504031403A43581A42FCD0034B984728
S2140055D010BDC046152A000000180040552A0000DD
S2140055E010B50400094B9847A000094B9C46604440
S2140055F08022835840218B4383504031403A4358A1
S2140056001A42FCD1034B984710BDC046152A00002D
S21400561000180040552A000070B504000D00054B28
S21400562098472A780F2313402034A400024AA35038
S21400563070BDC046E15500000018004010B50400DB
S214005640064B98472034A400054BE4582407240F43
S214005650044B98472000044B984710BD152A0000BD
S21400566000180040552A00003D55000030B5D3789C
S214005670002B35D11378802B29D01B06802464029A
S214005680234354780225AC4306D19478002C20D1CD
S2140056908024A402234341605478013C012C1CD989
S2140056A00D042D0CA024E4052C431C4384620D0C31
S2140056B0D02424062C431C438462D478002C22D1A8
S2140056C05B031CD59378012B1ED0416117E00023A5
S2140056D0D7E7C024E4022343DDE70D4C2340DFE791
S2140056E041600C04240CA023DB05234383620C0CCE
S2140056F0D0231B0623438362D378002B03D1537831
S214005700013B012B02D930BD8161F8E78160FAE7E1
S214005710FFFFFBFF10B50A00C1090023002904D1D2
S2140057204309DB0105498C4663441F2420400121C0
S21400573081401800024B984710BDC0460028004024
S2140057406D5600007047000010B5054B9847054B96
S2140057509847054B9847054B9847054B984710BD0B
S214005760F9510000852A000045570000392E000038
S21400577045570000931C9B001950022A09D0032AA3
S2140057800CD0012393401A00037E134303760020B7
S2140057907047037E102213430376F8E7037E202229
S2140057A013430376F3E7000070B58000164BC45829
S2140057B023689D7A227E637E13401D40EB0706D445
S2140057C0AB070BD4EB0610D4AB0615D470BD200087
S2140057D0A3689847012322689372F1E72000E368E4
S2140057E09847022322689372ECE7200023699847C3
S2140057F0102322689372E7E72000636998472368BE
S21400580020229A72E2E7C0469020002010B50020C1
S214005810014B984710BDC046A957000010B501209F
S214005820014B984710BDC046A957000010B502208E
S214005830014B984710BDC046A957000010B503207D
S214005840014B984710BDC046A957000010B504206C
S214005850014B984710BDC046A957000030B587B029
S21400586001A90C4B0A0032CB32C212CB12C2019BEA
S21400587098420BD0012301A99A005258824206D0C2
S2140058800133052BF8D1002007B030BD0023D8B275
S214005890FAE7C04630E30100F0B5C64600B58EB064
S2140058A004000D0016000800AE4B984780460CAB6F
S2140058B01B221A705A7001329A70DA7001321A710D
